S01700004543555F5363616E6E65725F302E342E7372656316
S1130000F8250020C9530000C5530000C553000063
S113001000000000000000000000000000000000DC
S1130020000000000000000000000000C5530000B4
S11300300000000000000000C5530000C55300008C
S1130040C5530000C5530000C5530000C55300004C
S1130050C5530000C5530000C5530000C55300003C
S1130060C5530000FD4C00000D4D00001D4D000067
S11300702D4D00003D4D00004D4D0000C5530000C6
S1130080C5530000C5530000C5530000C55300000C
S1130090C5530000C5530000C5530000C5530000FC
S11300A0C5530000C5530000C5530000C5530000EC
S11300B00000000010B5064C2378002B07D1054B37
S11300C0002B02D0044800E000BF0123237010BDC0
S11300D02C0100200000000068BF000008B5084B98
S11300E0002B03D00748084900E000BF0748036815
S11300F0002B00D108BD064B002BFBD09847F9E735
S11301000000000068BF00003001002068BF00004C
S11301100000000030B585B0041C0023039305687B
S1130120304B98472B79002B41D101332B712E4B47
S113013098479F2201AB1A706379D90900220029DC
S113014039D15A09D20129498C46624433E05A090B
S1130150D20126498C4662441F210B401E39994026
S113016091610023226813712379092B15D89B0010
S11301701F4AD3589F461F4B12E01F4B10E01F4BE2
S11301800EE01F4B0CE01F4B0AE01F4B08E01F4B17
S113019006E01F4B04E01F4B02E0002300E01E4B6F
S11301A0039A934201D014201AE0002018E00E4B69
S11301B09847052014E01F210B401E3999405161D6
S11301C0206801A90122154B9847206803A903223E
S11301D00023134DA8476379DA09B8D00022BBE79E
S11301E005B030BD5D4D00009D4D00000044004150
S11301F044A200001F4300001F4401001F450200E9
S11302001F4501001F4602001F4603001F86000011
S11302101F4701001F4800001F65000075480000CB
S11302205D470000F0B585B0041C0E1C01921F1C34
S11302305A180379092B15D89B003149CB589F468E
S11302408023DB0212E080231B030FE080235B0387
S11302500CE080239B0309E08023DB0306E080237A
S11302601B0403E0002301E080235B0217209A4271
S113027044D82568234B98472B79002B3BD1013375
S11302802B71214B98470B2302AA1370D670330AA3
S11302909370360C56706379D9090022002904D171
S11302A05A09D20119498C4662441F210B401E3958
S11302B099405161206802A90522154B9847002FE7
S11302C005D0206801993A1C0023124DA847637990
S11302D0D9090022002904D15A09D2010B498C46BC
S11302E062441F210B401E3999409161236800220A
S11302F01A71002002E0044B9847052005B0F0BDB8
S11303006CA200005D4D00009D4D000000440041C2
S1130310754800005D470000F0B55F4656464D46FF
S11303204446F0B487B0051C0E1C01921C1C5A18DC
S11303300379092B15D89B00C749CB589F468023C6
S1130340DB0212E080231B030FE080235B030CE03D
S113035080239B0309E08023DB0306E080231B0446
S113036003E0002301E080235B0217209A4200D9B6
S1130370F4E12F68B94B98473B79002B00D0B9E1E1
S113038001333B71B64B9847062304AA13706B796B
S1130390D9090022002900D0B0E15A09D201B1499B
S11303A08C466244AAE15A09D201AE498C466244A1
S11303B01F210B401E3999409161FF2333401A1CC1
S11303C080235B009B1A1F1C9BB2A34200D9271CED
S11303D0BBB29A46022304AA1370D670330A9370F0
S11303E0330C53706B79D9090022002904D15A09BE
S11303F0D2019C498C4662441F210B401E3999400E
S11304005161286804A90422974B98475346002B4E
S113041004D0286801995246934B98476B79D909BF
S11304200022002904D15A09D2018E498C46624423
S11304301F210B401E39994091612B6819680122D4
S11304400B7E1342FCD06B79D9090022002904D118
S11304505A09D20183498C4662441F210B401E393C
S1130460994051612B681B681A7ED20701D5052279
S11304709A622B689C461A680421137E0B42FCD0B6
S1130480137E00205B0710D5538B5B0703D5518B7C
S113049004230B43538363469B79012B03D1906A56
S11304A0C005C00D01E0906AC0B2012200239C4641
S11304B0042104239946A046041C2B681F683B7E34
S11304C01342FCD03B7E134201D06346BB622868D2
S11304D007683B7E0B42FCD03B7E0B4210D07B8BEB
S11304E00B4204D07B8B4C4623439BB27B838379A2
S11304F0012B03D1BC6AE405E40D01E0BC6AE4B25B
S11305002242DAD1201C44466B79D9090022002901
S113051004D15A09D20153498C4662441F210B402D
S11305201E39994091611023820600D5DDE0F5E083
S11305304D4B984680235B009B466A46D381062335
S113054004AA13706B79D9090022002900D0EDE0C8
S11305505A09D20143498C466244E7E05A09D20160
S113056040498C4662441F210B401E3999409161D9
S11305705644019B191C51440191029A131C5A457B
S113058001D96B46DB899BB29A46022304AA1370F5
S1130590D670330A9370330C53706B79D9090022E7
S11305A0002904D15A09D2012E498C4662441F21E4
S11305B00B401E3999405161286804A904222A4B32
S11305C098475346002B04D0286801995246264B7D
S11305D098476B79D9090022002904D15A09D2011C
S11305E020498C4662441F210B401E399940916179
S11305F02B68196801220B7E1342FCD06B79D90950
S11306000022002904D15A09D20116498C466244B9
S11306101F210B401E39994051612B681B681A7EBB
S1130620D20701D505229A62286802680421137E44
S11306300B42FCD0137E00275B0719D5538B5B0755
S113064003D5518B04230B4353838379012B0DD1A1
S1130650976AFF05FF0D0BE094A200005D4D0000BA
S11306609D4D00000044004175480000976AFFB2A8
S1130670012100239C460420042399462B681A6810
S1130680137E0B42FCD0137E0B4201D0634693626F
S11306902C682268137E0342FCD0137E034210D0E0
S11306A0538B034204D0538B4F463B439BB253833B
S11306B0A379012B03D1976AFF05FF0D01E0976A27
S11306C0FFB23942DAD16B79D9090022002904D169
S11306D05A09D20125498C4662441F210B401E3918
S11306E099409161BB0630D510232A68002111710D
S11306F0181C33E01E4B984705202FE01F210B40A8
S11307001E3999405161286804A90122194B984760
S11307106B79DA0900D146E6002249E65346E31A2A
S11307209BB20293002B00D002E7DEE71F210B40AF
S11307301E3999405161286804A90122C0476B7988
S1130740DA0900D10AE700220DE7029B52469B1A00
S11307509BB20293002B00D0F1E6C6E707B03CBC85
S113076090469946A246AB46F0BDC04600440041BF
S11307709D4D000075480000F0B583B0041C0E1CAC
S1130780151C0379092B00D9D2E09B00834AD35866
S11307909F468023DB0210E080231B030DE08023AF
S11307A05B030AE080239B0307E08023DB0304E070
S11307B080231B0401E080235B0217209E4200D3A8
S11307C0E9E02768764B98473B79002B00D0B1E0ED
S11307D001333B71734B984706236A461370637960
S11307E0D9090022002900D0A8E05A09D2016E4993
S11307F08C466244A2E05A09D2016B498C46624499
S11308001F210B401E3999409161012D09D0002D03
S113081000D1A3E0D823AA1E514251414A421340B9
S11308209DE052239BE05909C9015F4A9446614403
S1130830A1E05A09D2015C498C4662441F210B4055
S11308401E39994091612368196801220B7E134275
S1130850FCD06379D9090022002904D15A09D201B4
S113086051498C4662441F210B401E399940516105
S113087023681B681A7ED20701D505229A62206874
S113088002680421137E0B42FCD0137E00255B0713
S11308900FD5538B5B0703D5518B04230B43538331
S11308A08379012B03D1956AED05ED0D01E0956A7D
S11308B0EDB201210027042004239C4623681A6812
S11308C0137E0B42FCD0137E0B4200D09762266845
S11308D03268137E0342FCD0137E034210D0538B44
S11308E0034204D0538B65462B439BB25383B379A5
S11308F0012B03D1956AED05ED0D01E0956AEDB28A
S11309002942DBD16379D9090022002904D15A098B
S1130910D20125498C4662441F210B401E3999405F
S11309209161A806C00F0001236800221A7132E009
S1130930172030E01B4B984705202CE01F210B406B
S11309401E3999405161206869460122174B984726
S11309506379DA0900D14EE7002251E720236A4681
S11309601370D670330A9370360C56706379DA09B3
S113097000D158E700211F2213401E3A9A404A61D1
S1130980206869460422094B98476379DA0900D143
S11309904FE7002252E703B0F0BDC046BCA20000FE
S11309A05D4D00009D4D000000440041754800006D
S11309B070B582B0041C0D1C0668374B9847337918
S11309C0002B3FD101333371344B984706236A46D9
S11309D013706379D9090022002937D15A09D20149
S11309E02F498C46624431E05A09D2012C498C4685
S11309F062441F210B401E39994091613C236A1EB9
S1130A0095416D422B406A46D37101236A461370A7
S1130A106379DA090021002A27D15909C901204A3A
S1130A209446614421E05A09D2011D498C4662442E
S1130A301F210B401E3999409161236800221A71CD
S1130A40002026E0154B9847052022E01F210B408B
S1130A501E3999405161206869460122114B98471B
S1130A606379DA09C0D00022C3E71F2213401E3A7B
S1130A709A404A612068694601220A4DA8472068C5
S1130A806B46D91D0122A8476379DA09CBD000222D
S1130A90CEE702B070BDC0465D4D00009D4D000024
S1130AA0004400417548000030B583B0041C05685B
S1130AB01D4B98472B79002B20D101332B711B4BF5
S1130AC09847B9236A4613706379D909002200292B
S1130AD018D15A09D20116498C46624412E05A09C7
S1130AE0D20113498C4662441F210B401E399940A0
S1130AF09161236800221A71002012E00B4B984781
S1130B0005200EE01F210B401E39994051612068D9
S1130B1069460122074B98476379DA09DFD000223E
S1130B20E2E703B030BDC0465D4D00009D4D0000BE
S1130B30004400417548000030B583B0041C0568CA
S1130B401D4B98472B79002B20D101332B711B4B64
S1130B509847AB236A4613706379D90900220029A8
S1130B6018D15A09D20116498C46624412E05A0936
S1130B70D20113498C4662441F210B401E3999400F
S1130B809161236800221A71002012E00B4B9847F0
S1130B9005200EE01F210B401E3999405161206849
S1130BA069460122074B98476379DA09DFD00022AE
S1130BB0E2E703B030BDC0465D4D00009D4D00002E
S1130BC0004400417548000010B5490840248142A2
S1130BD00CD30023091A01339BB28842FAD9013B92
S1130BE09BB24024FF2B01D813800024201C10BD8D
S1130BF0F0B55F4656464D464446F0B489B01C1CD9
S1130C0012AB1B78061C5E4340258E4200D9C7E018
S1130C10251C07920C1C021C002D51D1181C00210C
S1130C200023634DA8478346261C00270023002485
S1130C3002930394002200233F2020218C461F3975
S1130C400096019720246442041903D40D1CA54086
S1130C50A84604E06446241A0D1CE540A8460C1C72
S1130C608440A146141C1D1CA4185D41221C2B1C8D
S1130C705E4647463E4203D00E1C2643321C2B1CC4
S1130C80019C9C4210D802D1009C94420CD8009C38
S1130C90019D121BAB414D46029E039F35433C1CF4
S1130CA046463443029503940138CBD200220123F3
S1130CB002980399121A8B41110C1B0419436CE01E
S1130CC00021012D69D1610F0F1CE1008846181C19
S1130CD000210023364CA047041C0D1C00239C4615
S1130CE020339B46012663460593B9466B461B7D1C
S1130CF0069300239C46002000213F220094019586
S1130D0020235B42D31803D4341C9C40231C04E0EE
S1130D105B469B1A341CDC40231C371C9740041C84
S1130D200D1C24184D41201C291C0290039144469B
S1130D303C40A2464C4623405446234305D0029BE4
S1130D40039C1D1C3543281C211C019B8B420AD883
S1130D5002D1009B834206D8009B019CC01AA1418A
S1130D6063463B439C46013ACAD2009C019D6246BD
S1130D700599531ADB080F4A934208D9069A01329F
S1130D80D2B206920A1C01320592082AAED140253D
S1130D90069A082A04D051031943079B1980002599
S1130DA0281C09B03CBC90469946A246AB46F0BD0F
S1130DB04D6B0000FF1F000010B582B0041C0E4BE9
S1130DC01B78002B01D000290DD001A90C70132031
S1130DD00A4B984713200A4B9847074B5C70012233
S1130DE01A70002006E0044B5B78834201D01D207A
S1130DF000E0002002B010BD480100206D52000048
S1130E00E1510000444B984233D006D8434B9842FA
S1130E100DD0434B98421BD06FE0424B98424AD0CE
S1130E20414B984258D0414B984266D132E0012957
S1130E3006D0002963D0022906D0032906D001E098
S1130E403B4867E0002065E03A4863E03A4861E0E7
S1130E50012906D0002954D0022906D0032906D03E
S1130E6001E0364856E0002054E0354852E0354869
S1130E7050E0012906D0002945D0022906D00329D3
S1130E8006D001E0304845E0002043E02F4841E02F
S1130E902F483FE0012906D0002936D0022906D088
S1130EA0032906D001E02B4834E0002032E02A4830
S1130EB030E02A482EE0012906D0002927D0022953
S1130EC006D0032906D001E0254823E0002021E0D4
S1130ED024481FE024481DE0012906D0002918D029
S1130EE0022906D0032906D001E0204812E00020A0
S1130EF010E01F480EE01F480CE000200AE01E48E6
S1130F0008E0032006E01D4804E01D4802E01D48F7
S1130F1000E01D487047C04600100042000800422F
S1130F20000C004200180042001C00420014004261
S1130F30030005000300060003000700030001008E
S1130F4003001E0003001F000300090003000A0041
S1130F5003000B0003001100030012000300130040
S1130F6003000D0003000E0003000F000300170030
S1130F700300180003001900030004000300080024
S1130F800300100003000C000300160030B587B006
S1130F900C4B6A4632CB32C232CB32C2009B834204
S1130FA006D001239A0069465258824203D100E0D8
S1130FB00023D8B203E00133062BF3D1002007B09D
S1130FC030BDC046E4A20000F8B58000654BC558AA
S1130FD02C68E369002BFCD1237EA67D1E403123BF
S1130FE0EB5C3022AF5C1F40F30722D5EB8D9BB244
S1130FF0002B1CD0AA6A1378DBB2511CA962697950
S1131000012901D09BB204E0517809020B4302325A
S1131010AA62DB05DB0D2385EB8D013B9BB2EB85DF
S1131020002B06D1013323750133A37501E001239D
S11310302375B30709D50223237500223133EA54FB
S1131040FB0702D5281CEB68984773076AD5AB8D5C
S11310509BB2002B64D0638BDBB21A0702D43F220D
S1131060134001E037221340002B37D09A0707D5ED
S11310701A223223EA54628B303B1343638327E002
S11310805A0707D51E223223EA54628B2E3B1343A0
S113109063831DE0DA0707D513223223EA54628BF7
S11310A0313B1343638313E0DA0607D5422232232C
S11310B0EA54628B223B1343638309E020221A42E1
S11310C006D021323223EA54628B123B13436383EA
S11310D07B0727D5281C6B69984723E0238DDB0504
S11310E0DB0DDAB2696A0A706A6A511C696269794D
S11310F0012904D11B0A53706B6A01336B62AB8DF7
S1131100013B9BB2AB85002B0CD104332375002229
S11311102E33EA54BB0705D5281C2B69984701E0F8
S113112004232375F30607D5102323752376FB06C2
S113113002D5281CEB699847B30607D520232375ED
S113114023763B0702D5281CAB699847330707D59C
S1131150082323752376BB0602D52B6A281C9847DF
S1131160F8BDC046DC05002070B5044D84B2044EC1
S1131170281C211CB0470028FAD170BD980100201A
S1131180A944000008B5011C0348044B9847431EBA
S11311909841C0B208BDC04698010020D544000063
S11311A070B5044E044D054C301C291CA04705287D
S11311B0FAD170BD9801002004020020D54400003B
S11311C070B590B08023DB05009300230193FF22C8
S11311D069460A8100228B72CB72012124206C465D
S11311E021540130215425316354013163540A934D
S11311F0053163540131635405932382E3762276E7
S1131200227762761323A3766277164B08938023A2
S11312105B030393144B0C93144B0D9301235B4218
S11312200E930F93124E134D134C301C291C6A4617
S1131230A0470028F9D10E4D2C68201C0F4B98476D
S11312401F2318401E3B8340181C0D4B18602A684E
S1131250D369002BFCD1226802331343236010B0FE
S113126070BDC046A0280000030028000300290028
S1131270980100200018004271410000D14C000088
S113128000E100E030B583B0114D2C68201C114BF7
S113129098471F2318401E3B8340181C80230E4A86
S11312A0D0502A68D369002BFCD1236802229343CF
S11312B0236001A901234B7000228A700B7028203F
S11312C0064B984780225200054B9A6103B030BD0B
S11312D098010020D14C000000E100E0054E000020
S11312E08044004100290ED0C2090023002A04D101
S11312F04309DB010B4A944663441F2210401E3A03
S113130082409A610DE0C2090023002A04D14309F6
S1131310DB01044A944663441F2210401E3A824073
S11313205A6170470044004170B590B08023DB05DA
S1131330009300230193FF2269460A8100228B72E5
S1131340CB72012124206C462154013021542531D3
S11313506354013163540A93053163540131635476
S113136005932382E3762276227762761323A3768B
S11313706277164B089380235B030393144B0C93FF
S1131380144B0D9301235B420E930F93124E134D96
S1131390134C301C291C6A46A0470028F9D10E4D75
S11313A02C68201C0F4B98471F2318401E3B83407A
S11313B0181C0D4B18602A68D369002BFCD12268D5
S11313C002331343236010B070BDC04690D00300B5
S11313D00200160002001700D00100200014004291
S11313E071410000D14C000000E100E070B5044DF3
S11313F084B2044E281C211CB0470028FAD170BDC9
S1131400D0010020A944000070B5051C0024044E3E
S1131410285DB0470134A4B22B5D002BF8D170BD18
S1131420ED1300000FB400B5C3B044AA02CA019280
S113143002A8044B984702A8034B984743B008BC42
S113144004B018476D9A00000914000008B5011C87
S11314500348044B9847431E9841C0B208BDC04698
S1131460D0010020D544000070B5044E044D054C55
S1131470301C291CA0470528FAD170BDD0010020DA
S113148004020020D5440000F0B583B0071C01918C
S1131490151C0D4C201C0D4B9847201C00210C4E94
S11314A0B047201C291C00220A4B9847201C291CE9
S11314B03A1C019B084DA847201C0121B047201C61
S11314C0064B984703B0F0BD08020020390B00001A
S11314D0B10900007907000019030000A90A0000FF
S11314E0F8B5061C0D1C171C064C201C064B98470F
S11314F0201C391C321C2B1C044DA847201C044BF7
S11315009847F8BD08020020390B000025020000AE
S1131510A90A0000F8B5104C201C104B9847201C59
S113152000210F4B984700240B4F0E4E80256D036E
S1131530381C211C0222B04780235B029C46644471
S1131540AC42F5D1044C201C0121054B9847201CCA
S1131550054B9847F8BDC04608020020390B00002F
S1131560B109000079070000A90A0000F0B54F4650
S11315704646C0B483B080468946171C294B1B6875
S11315801B6B1D682878284EB047284C8721C90555
S1131590A04701906878B047011C0198244B9847F4
S11315A0FA218905A047041C224B984780B2B8420F
S11315B00AD2201C204B9847011C2048204B9847F6
S11315C000234A46137027E01E4B1B8801339BB24D
S11315D00A2B02D01B4A138002E00022194B1A8006
S11315E001234A461370174B1B88042B0AD8002387
S11315F042461370201C104B9847011C1248104B94
S1131600984709E0012342461370201C0A4B98476F
S1131610011C0E480A4B984703B00CBC90469946EF
S1131620F0BDC046CC01002081770000E1710000CC
S1131630796C0000A16B000041770000FCA200005F
S1131640251400004A01002030A3000084A30000F8
S113165038B50748074CA047074B98470748A047A9
S1131660074D084C281CA0470028FBD138BDC046B4
S1131670D8A300002514000015150000F8A30000ED
S1131680040200204D140000F0B593B001900D1C2D
S11316905B4B98470C205B4B98475B485B4EB047CD
S11316A05B48B04700205B4B984700260021FA2294
S11316B0D2000023584FB847584A00238018594194
S11316C0574A0023574FB847574B984703AA012757
S11316D0177056609660167456749774D77416759E
S11316E02423D6540A960B96504B936180235B02B5
S11316F0D3604F4B936201235B42D3624D4B136320
S11317004D4B53634D4C201C4D494E4B9847266816
S1131710301C4D4B98471F23184087404B4B1F608C
S11317202268D369002BFCD132680233134333603F
S1131730474E0423337109337371404B33600123E3
S113174002AA5370002202A98A700B700D20414B2B
S113175098477379D9090022002904D15A09D20182
S11317603D498C4662441F210B401E3999409161CA
S1131770374E301C394B9847301C394B984700285A
S113178003D03848214B984702E037481F4B98470D
S11317903F2602AB9C466644301C01210022334B99
S11317A098473278324B1B789A420ED13148174B06
S11317B0984701980221802252012C4CA047281CF2
S11317C01A2180229201A04711E02B480F4B984721
S11317D0274801210022294EB04701980221802286
S11317E05201B047281C1A2180229201B047244B91
S11317F09847244B9847244B186013B0F0BDC0465B
S113180029130000ED13000058A400002514000063
S113181068A40000555100004D6B0000571B0000E8
S1131820581B00000D6B000001000020C0D4010013
S113183002003000030036000300370010020020CD
S1131840001C00424D450000D14C000000E100E0C6
S113185008020020054E000000440041390B00003E
S11318601501000078A40000A0A40000E114000009
S11318700C000020ACA40000C8A4000089140000DF
S1131880552B00002D300000CC010020F8B55F4638
S113189056464D464446F0B4C24B9847C24B98470F
S11318A0C24B18600023C24A1380C24A1380C24A42
S11318B01380C24A1380BE4C23883E2B0ED002D81C
S11318C0002B05D065E0522B3ED05D2B53D060E059
S11318D00022BB4B1A703E32B54B1A80B84B1B78B2
S11318E0002B59D00023B74A1370B74A1370B74B73
S11318F01B78002B04D1B64B9847B64B1870E7E71A
S1131900B24FB54EB54D387831782A78B44B9847F4
S1131910C0B2AD4B1870002837D0AA4A13780133EF
S1131920DBB21370092BEED9AE48AF4B9847AF4BDF
S11319301978AF4A1170A44A12781A700122AD4B7B
S11319401A7051329A4B1A80AA4B1B78002B01D083
S113195001F01BF89E4B9847C0B29B4B18700028AF
S1131960B6D1A34B1A78A14B1A700122A14B1A705D
S11319705C328F4B1A809F4B1B78002B01D001F0F7
S113198004F800228F4B1A70BAE70022914B1A70A8
S11319909EE70022864B1A80864B1B88732B0AD045
S11319A07A2B17D0002B00D0C9E00022924B1A707A
S11319B07332804B1A80904B1B78002B00D1C1E00E
S11319C000228E4B1A8010E001228A4B1A70793261
S11319D0784B1A80874B1B78002B00D0B2E0884BE1
S11319E01B78002B01D001F070F8864D864E01273C
S11319F07F42281CB0470028E6D1814B1B78002B7E
S1131A0001D001F062F87F4B19780D2901D00A2921
S1131A1007D17E48744B98477D4B1B78022B28D105
S1131A201DE07F290DD1754B1B88002B06D0023B8E
S1131A30724A138075486C4B98470BE06F4B1F80BC
S1131A4008E07248684B98476C4B1B886D4A1178C4
S1131A50704AD154694A138801331380C9E7684B2B
S1131A601B78002BA1D1654B1B880021694AD154F6
S1131A709BE7012B99D8624B1B78002B95D15F4BC8
S1131A801E880023634F3D1C18E0F95C0A1C303AA1
S1131A90D2B2092A01D8EA540EE00A1C413A052AB6
S1131AA003D837395B4AD15406E00A1C613A052A47
S1131AB002D85739574AD1540133DBB29AB2B242F1
S1131AC0E3D300252F1C4D4B994630E0504A127841
S1131AD0002A15D1FA434F49CB189B5C9846381C11
S1131AE04D4B9847021C0B1C00204C494C4EB047F0
S1131AF04C4B984780B243465843281885B214E0AB
S1131B00FA434449CB189B5C9846381C424B98478F
S1131B10021C0B1C00204449414EB047414B9847DE
S1131B2080B243465843281885B20137FFB24B466A
S1131B301B88BAB29342C9D83C4B1D8035E70022BA
S1131B401C4B1A801C4B1B88002B02D0C02B06D0C8
S1131B500BE00022274B1A70C032174B1A80254B1A
S1131B601B78002BF5D100F020FF0022124B1A80C5
S1131B70124B1B888732FF32934200D185E300D990
S1131B8083E0863A934200D18BE15CD8D52B00D117
S1131B90E0E04DD8002B00D1C1E0CC2B00D1C7E050
S1131BA000F0EEFE995300002D300000CC0100201F
S1131BB080020020500200207C02002078020020D5
S1131BC04F0200204D0200204E010020820200201E
S1131BD0E12D0000510100204E0200207A02002075
S1131BE0992D0000E4A400002514000075020020D3
S1131BF04C0200208903002076020020720200209B
S1131C004F010020040200204D14000000A5000034
S1131C107702002088020020E99300000000304091
S1131C20E5540000D16B0000000024408402002031
S1131C30F22B00D1E5E0F92B00D10AE1EB2B01D026
S1131C4000F09EFEB6E0A0225200934200D1D4E1FF
S1131C500AD80822FF32934200D144E12B32934246
S1131C6000D192E100F08CFE6022FF32934200D159
S1131C7074E27222FF32934200D19AE24822FF3288
S1131C80934201D000F07CFED4E1F222FF32934271
S1131C9001D100F047FC1FD8A622FF32934200D1A5
S1131CA04FE30AD8153A934200D109E39622FF3252
S1131CB0934200D11EE300F063FECE22FF32934232
S1131CC000D18CE30732934200D1A6E3143A934245
S1131CD001D000F055FE64E3DE4A934201D100F0E6
S1131CE02AFD0BD8DC4A934201D100F06DFCDB4A9B
S1131CF0934201D100F0CFFC00F042FED84A934257
S1131D0001D100F080FDD74A934201D100F09AFD41
S1131D10163A934201D000F033FE00F055FD002244
S1131D20D14B1A700132D14B1A70CB32D04B1A807E
S1131D30CE4B1B78002B00D0BEE5CE48CE49CF4B0E
S1131D4098470022CE4B1A700132CE4B1A70D4320F
S1131D50C74B1A80CB4B1B78002B00D0ACE500227C
S1131D60C94B1A70C94B98470C20C94B9847C948AE
S1131D70C94DA847C948A847C948A847C948A8475A
S1131D80C948A847C948A847C948A847C948A8474F
S1131D90C948A847C94B1B785AB2002A23DDC84852
S1131DA0BD4B98470123B04A1370B04A1370EB221D
S1131DB0AF4B1A80AD4B1B78002B00D07CE5002084
S1131DC0C04B98470021FA2292000023BE4DA84739
S1131DD0BE4A002380185941BD4A0023BD4DA8477F
S1131DE0BD4B984725E05BB2002B22DABB48AA4BD7
S1131DF0984701239C4A13709C4A1370F2229C4B0F
S1131E001A809A4B1B78002B00D055E50020AD4B6F
S1131E1098470021FA2292000023AB4DA847AB4A11
S1131E20002380185941AA4A0023AA4DA847AA4B67
S1131E309847AB4B1B785AB2002A23DDA948964B2E
S1131E4098470123884A1370884A1370F922884BF3
S1131E501A80864B1B78002B00D02DE50020994B6F
S1131E6098470021FA2292000023974DA847974AE9
S1131E70002380185941964A0023964DA847964B53
S1131E80984726E05BB2002B23DA9748824B9847A9
S1131E900123754A1370754A137080225200744BE3
S1131EA01A80724B1B78002B00D005E50020854B6F
S1131EB098470021FA2292000023834DA847834AC1
S1131EC0002380185941824A0023824DA847824B3F
S1131ED098470222644B1A70013A644B1A70082224
S1131EE0FF32634B1A80614B1B78002B00D0E3E474
S1131EF0654A13707D4A1370704A13707C487D4B99
S1131F009847002801D000F0E8FD794B1A78312A6F
S1131F1004D0794B1B78072B00D0FFE077485E4B49
S1131F209847774B03221A7001325A700521997031
S1131F300131D970013119710B2058710130987138
S1131F400130D87101301872013058720230987221
S1131F500430D8720C30187300205873664B197013
S1131F60414B1A704EE00022664B1A801BE001229E
S1131F7044490A7042490A700021634A1170634A55
S1131F801370992252003A4B1A803E4B1B78002B57
S1131F9000D091E4524B1B785BB2002B4FD1594ACD
S1131FA0138801331380574B1B88554AD35C002B8D
S1131FB0DDD14B4B1B785BB2002B40D10C20344B52
S1131FC098475348344B984700224E4B1A804C4F45
S1131FD01E1C504D06E028684F4B9847494A138809
S1131FE0013313803388F95C0029F4D101221F4B9B
S1131FF01A704032FF321E4B1A801C4B1B78002B88
S113200000D059E43A483B4B9847002803D03A4B58
S11320101B78072BA7D0324B1B785BB2002B0ED159
S11320200122124B1A7001320F4B1A704822FF32F0
S11320300F4B1A800D4B1B78002B00D03CE4002280
S11320402D4B1A70114B98470122284B1A7000F03F
S11320508EFCC0463B020000070200001E02000086
S1132060560200006202000075020020890300206D
S1132070780200202A0000201000002089160000A9
S1132080820200204F020020520100206914000047
S1132090ED13000058A400002514000004A500005E
S11320A01CA500002CA5000044A5000058A50000B4
S11320B074A5000090A50000ACA50000510100200B
S11320C0C0A50000555100004D6B0000571B0000D7
S11320D0581B00000D6B000001000020E4A5000067
S11320E04E01002004A6000024A600004D0100209B
S11320F0040200204D1400004F01002040A60000FF
S113210054020020720200207A0200204E020020B5
S11321105CA60000CC01002001400000322A02D05D
S1132120082B00D0F5E00C20D14B9847D148D24D74
S1132130A847D248A8470122D14B1A70D148A847D2
S1132140D14B1B78082B1ED00022D04B1A700132C1
S1132150CF4B1A706022FF32CE4B1A80CC4B1B78C7
S1132160002B01D0FFF7A8FBC74B1B78002B07D12E
S1132170C94B1A88C94B1A700822C34B1A7002E063
S1132180082B00D0BCE0C54D2978C548BA4B984708
S1132190BB4B1A78C34B1A702A78C34B1A700022AF
S11321A0C24B1A700132C24B1A707222FF32B94B01
S11321B01A80BF4B1B78002B01D0FFF77DFBBD4B72
S11321C01B785BB2002B00D09AE0B44B1B78032B36
S11321D003D11C22B84B1A7050E0042B03D11D22EA
S11321E0B54B1A704AE0052B03D11E22B24B1A706C
S11321F044E0062B03D11F22AF4B1A703EE0072B9D
S113220003D12022AC4B1A7038E00B2B03D12122CE
S1132210A94B1A7032E00C2B03D12222A64B1A7060
S11322202CE00D2B03D12322A34B1A7026E00E2B96
S113223003D12422A04B1A7020E00F2B03D12522B6
S11322409D4B1A701AE0112B03D126229A4B1A7057
S113225014E0132B03D12722974B1A700EE0152B91
S113226003D12822944B1A7008E0212B03D1292290
S1132270914B1A7002E000228F4B1A7001228F4B8F
S11322801A708632FF32834B1A808C4B1B78002BDA
S113229001D0FFF711FB814B1978894B1868894BE2
S11322A098478948744B984710E0834B1B78002B60
S11322B00FD00122814B1A709032FF32754B1A8075
S11322C07E4B1B78002B01D0FFF7F6FA7F4D804E32
S11322D06D4F281CB047002802D03B78082BE4D06F
S11322E00122764B1A700132734B1A709622FF3218
S11322F0684B1A80714B1B78002B01D0FFF7DCFA76
S11323000022614B1A70734B98470122724B1A706A
S11323102DE3332A02D0052B00D08DE06F4B1988B2
S11323206F48554B9847584B1B78052B00D1C8E391
S11323300123564A1370564A1370A622FF32554B96
S11323401A80534B1B78002B01D0FFF7B5FA524B80
S11323501B88002B03D14C4A1278052A09D15F4807
S113236003800221802252015E4B98475E48424B13
S11323709847454B1B78002B00D0F8E20522424BCE
S11323801A709EE30123474A13700C21464A1170C8
S11323900021464A1170464A1370E02252003D4B18
S11323A01A80434B1B78002B01D0FFF785FA414B71
S11323B01B785BB2002B36D10C202D4B98474B4831
S11323C02D4B9847454B1A8849484A494A4B9847E8
S11323D001223A4B1A70CE22FF322E4B1A80374B11
S11323E01B78002B01D0FFF767FA3848384B984721
S11323F0002803D0244B1B78052BC3D02D4B1B780E
S11324005BB2002B0FD102222B4B1A70013A2B4BDB
S11324101A70D432FF321F4B1A80284B1B78002BC2
S113242001D0FFF749FA0022174B1A70294B98473D
S11324300122294B1A709AE2342A02D0032B00D0CD
S113244038E100222D4B1A702D4B0D2119700839DB
S11324505970DA7003320C4B1A700432164B1A702E
S1132460B8E00C22264B9A700022264B1A8069E0B1
S1132470ED1300008CA6000025140000A4A60000A3
S113248088030020BCA600004F0100207702002032
S113249076020020780200208402002074020020CA
S11324A0D0A60000820200204E0200207A02002002
S11324B04F0200204E0100207502002089030020F5
S11324C0CC01002001400000DCA600000402002032
S11324D04D140000691400004D0100202A00002062
S11324E004A700008914000074A7000098A7000046
S11324F0500100204C0100206D15000083020020D3
S113250054020020720200200122D8490A70D849DE
S11325100B700021D74B1970D74B1A70F222FF327F
S1132520D64B1A80D44B1B78002B01D0FFF7C4F98B
S1132530D34B1B785BB2002B00D0D7E2D14A13886F
S113254001331380CF4B1B88CF4AD35C002BDBD1E4
S1132550CB4B1B785BB2002B00D0C7E20C20CB4BDB
S11325609847CB48CB4B9847CB4B1B685B6B1B689E
S11325701B78CA4A12789A4201D2C84A1370C74BD0
S11325801978C748C34B98470023BF4A9370BD4A84
S11325901380BD4E151CC04F06E03868C14B9847E8
S11325A0B84A1388013313802B88F15C0029F4D1D5
S11325B0BD4B1A88BD48BE49BE4B98470122BE4B4D
S11325C01A70BE4AAD4B1A80BB4B1B78002B01D04E
S11325D0FFF772F9BA48BB4B9847002804D0BA4BAE
S11325E01B78032B00D13CE7B54B1B782022934387
S11325F0532B03D0B44B1B78042B3ED1A04B1B7838
S11326005BB2002B4DD1B14BDD8A988A01300A218F
S1132610AF4B98470E1C8D4205D1681C0A21AC4B68
S11326209847AA4BD982A94B1B8B002B01D1A74BEE
S11326309E82A648838A5B00984E32781A520025FF
S113264005831A2180229201A24B98473178A2482F
S1132650904B9847281CA14B9847291CFA229200BA
S113266000239F4DA8479F4A0023801859419E4A42
S113267000239E4DA8479E4B9847814B1B785BB225
S1132680002B0ED101228C4B1A700132994B1A7017
S1132690994A7A4B1A80884B1B78002B01D0FFF79C
S11326A00BF90022884B1A70944B98470122944BE3
S11326B01A705CE1352A02D0022B00D093E09148D5
S11326C0744B9847814B1B8B002B03D08E48714B66
S11326D0984723E07D4B9D8A01268C4B99460A2717
S11326E009239846794B9B466B005A469A5A4846AA
S11326F0311C684B98470136B6B2781B744B9A4626
S1132700391C984743465D1AADB25B46D88A381ADD
S1132710391CD0474346591A8D42E3D102226A4BF1
S11327201A700232734B1A700BE00122624B1A705A
S1132730774A524B1A80604B1B78002B01D0FFF76D
S1132740BBF85F485F4B9847002808D05E4B1B7866
S1132750062B04D0674B1B78043B012BE5D9584B5F
S11327601B7820229343432B03D0574B1B78062B13
S113277020D1564800258582C582012303831A216E
S113278080229201534B98476248424B9847281C39
S1132790524B9847291CFA2292000023504DA84717
S11327A0504A0023801859414F4A00234F4DA847EF
S11327B04F4B984702224F4B1A70013A3E4B1A7006
S11327C0932292002D4B1A803B4B1B78002B01D097
S11327D0FFF772F800223C4B1A70484B98470122CD
S11327E0474B1A70C3E02021101C8843522801D0A3
S11327F0012B1CD100223F4B1A7001322E4B1A7050
S1132800454A1E4B1A802C4B1B78002B01D0FFF736
S113281053F842481F4B984700222B4B1A70374BF2
S1132820984701233E4A1370354A13709FE04328AA
S11328307CD100222F4B1A7001321F4B1A70394A77
S11328400E4B1A801C4B1B78002B01D0FFF734F879
S1132850354B984700221C4B1A70284B984701238C
S11328602F4A1370264A137081E0C046820200206A
S11328704E0200207A0200204F020020780200203D
S11328804E0100207202002054020020ED130000CB
S1132890CCA7000025140000CC01002083020020F6
S11328A018A80000014000002A0000205001002068
S11328B04C0100206D150000890300200702000070
S11328C0040200204D1400004F01002010000020DD
S11328D0796A00008914000034A8000055510000F2
S11328E04D6B0000571B0000581B00000D6B0000CF
S11328F001000020750200201E020000691400007F
S11329004D01002050A8000090A80000A8A80000D5
S11329103B020000B8A8000056020000E0A8000036
S1132920520100206202000051160000002A17D054
S11329307248734B9847734B98470020724B9847E3
S11329400021FA2292000023704DA847704A002308
S1132950801859416F4A00236F4DA8476F4B984721
S11329606F4B1B785BB2002B01D1FFF7B2FA6D4BB2
S11329701B785BB2002B01D0FFF7E3F9FFF7EFF907
S11329800022694B1A80FEF797FF684B1B88732B54
S113299001D1FFF710F87A2B01D1FFF7D3F8002B00
S11329A001D0FFF7CCF8FFF700F85F4B1B88C32278
S11329B05200934200D168E444D8863A934201D14C
S11329C0FFF76FFA19D8D52B01D1FFF7C3F908D84F
S11329D0002B01D1FFF7A3F9CC2B01D1FFF7ADF9FF
S11329E0CEE7F22B01D1FFF70CFAF92B01D1FFF757
S11329F030FAEB2BC4D1FFF7DDF9A0225200934249
S1132A0001D1FFF7FAFA0BD80822FF32934201D121
S1132A10FFF769FA2B32934201D1FFF7B6FAAFE719
S1132A206022FF32934201D1FFF798FB7222FF32FA
S1132A30934201D1FFF7BDFB4822FF3293429FD15D
S1132A40FFF7F8FAF222FF32934200D16AE51DD86B
S1132A50A622FF32934200D173E409D8153A934277
S1132A6000D12DE49622FF32934200D142E487E75D
S1132A70CE22FF32934200D1B1E40732934200D117
S1132A80CBE4143A934200D07AE78AE4284A93428A
S1132A9000D150E608D8274A934200D194E5264A4B
S1132AA0934200D1F7E56BE7244A934200D1AAE6AA
S1132AB0234A934200D1C5E6163A934200D05FE719
S1132AC082E609221F4B1A708FE41F4B1B78022BDE
S1132AD001D0FEF7CEFFFEF768FF1C4B1B78072BD7
S1132AE001D1FFF71BFA0022FFF71AFB184B1B78E2
S1132AF020229343532B00D07CE5D2E5FCA80000B0
S1132B002514000069140000555100004D6B0000AD
S1132B10571B0000581B00000D6B00000100002033
S1132B204D010020520100207802002050020020B4
S1132B303B020000070200001E02000056020000D3
S1132B406202000075020020770200204F0100207D
S1132B5004020020194B802292009918002204C319
S1132B608B42FCD1154B164A1A60164A5A60164A13
S1132B70DA60164A1A61164A5A61164A9A61164A66
S1132B80DA61164ADA62164A1A63164A5A63164A10
S1132B909A63164ADA63164A5A64164ADA64164A7B
S1132BA05A65164A1A671649802299501549043203
S1132BB0995015494C3299507047C0469C030020E7
S1132BC02C0000203C0000204C0000205C00002071
S1132BD0740000206C0000207C00002064000020B1
S1132BE0840000208C000020A4000020AC00002001
S1132BF0540000209C000020BC0000203400002071
S1132C00B4000020940000204400002070B5FF218F
S1132C10002812D11C1C151C6830094EB0476A20CC
S1132C20B047F120B047281CB047201CB047201CF7
S1132C303D382818C0B2B0470021081C70BDC046FA
S1132C4069110000F0B55F4656464D464446F0B45F
S1132C5089B000AFFF23002A00D083E00B1CB960C9
S1132C6078606A46FA6088468A1D91460D33DB080F
S1132C70DB006A46D31A9D467B613F4B9847002090
S1132C803E4B9847021C0023910F900012184B41B1
S1132C9092185B413A48002180185941394A00236F
S1132CA0394EB047394B98474B46002B35DC00234F
S1132CB03B613AE0013EF6B2002E4ED000202F4B8D
S1132CC09847B8610023FB612D480021BB69FC696A
S1132CD0C01861412B4A00232B4CA0472B4B98472B
S1132CE02B482C4B98470028E4D1BC69FD69284B3C
S1132CF01B787A6959465354424605325A4504DDD5
S1132D003A6994466344DBB23B6153460133DBB218
S1132D109A469B46994504DC07E000239B463B61A9
S1132D209A463326BC61FD61DAE77B69BA6894464A
S1132D3063445A79FF2339698A4211D16446002CCD
S1132D400DD0002379697868CA185279C2540133C6
S1132D50DAB29442F8D8002302E0012300E0002311
S1132D60FA689546181CBD4609B03CBC9046994685
S1132D70A246AB46F0BDC046A1110000555100006B
S1132D80571B0000581B00000D6B000001000020C1
S1132D90040200208511000070B5FF24012817D11A
S1132DA0161C0D1C8A000B4BD3581979301C0122B8
S1132DB02B1C094CA047FF24002809D1AA00054B6D
S1132DC0D35818681979321C2B1C044CA047041CD6
S1132DD0201C70BD9C0300200D2C0000452C00001D
S1132DE0F0B557464E464546E0B486B0814B984709
S1132DF028200021804B9A46984700207F4B994613
S1132E0098477F4B98460021C6220023C0477D4A3D
S1132E100023801859417C4F7C4A0023B8477C4EDC
S1132E20B04728200121D0470020C84700218E2226
S1132E30FF320023C047734A002380185941734A64
S1132E400023B847B04728200021D0470020C847B6
S1132E5000218E22FF320023C0476A4A00238018D3
S1132E6059416A4A0023B847B04728200121D04776
S1132E700020C84700218E22FF320023C047614A48
S1132E80002380185941614A0023B847B0472820DD
S1132E900021D0470020C84700218E22FF320023A2
S1132EA0C047584A002380185941584A0023B8475C
S1132EB0B04728200121D0470020C8470021C7225D
S1132EC00023C0474F4A0023801859414F4A00232A
S1132ED0B847B0474F4B98470020C84700211422F9
S1132EE00023C047474A002380185941474A00231A
S1132EF0B847B047484B98470123994600239A4660
S1132F00464B984632E0013FBFB2002F66D0002006
S1132F103A4B9847041C00253A480021001969419E
S1132F203A4A0023384EB047394B98473C48C0478B
S1132F300028E8D13A4B1B7852466946CA75CA7DC7
S1132F40002A02D1552B05D04AE0012A02D1354A84
S1132F50137004E0334A53704A46022A08D8012306
S1132F609C46E2444B460133DBB299466527DDE7D4
S1132F70DB43D8B22C4B9847274B98476525284C00
S1132F80264E1FE0013DADB2002D2BD000201B4B7F
S1132F909847029000230393029A039B910F019197
S1132FA091000091009801998018594100184941F5
S1132FB0144A002380185941144A0023124FB84779
S1132FC0134B9847201CB0470028DBD1144B1878CA
S1132FD0CC38431E98414042C0B204E0012002E0D4
S1132FE0FF2000E0012006B01CBC90469946A24692
S1132FF0F0BDC04685120000E512000055510000E6
S11330004D6B0000571B00000D6B0000581B0000A7
S113301001000020C1110000A11100008511000071
S113302004020020D4050020691100000048704704
S11330309C03002070B5051C03681C7863B2002B48
S113304003DAAC48AC4B984702E0AC48AA4B98472B
S11330506400E6B2230603D5A948A74B984702E0CB
S1133060A848A54B98477300DCB21B0603D5A648B5
S1133070A14B984702E0A5489F4B98476300DCB2F8
S11330801B0603D5A2489C4B984702E0A1489A4BE3
S113309098476300DCB21B0603D59F48964B9847BC
S11330A002E09E48944B98476300DCB21B0603D5AC
S11330B09B48914B984702E09A488F4B984763008E
S11330C0DCB21B0603D598488B4B984702E097481F
S11330D0894B9847630603D59548874B984702E088
S11330E09448854B98472B685C7863B2002B03DACD
S11330F09148814B984702E090487F4B9847640081
S1133100E6B2230603D58E487B4B984702E08D48F0
S1133110794B98477300DCB21B0603D58A48764B7B
S1133120984702E08948744B98476300DCB21B0659
S113313003D58748704B984702E086486E4B984702
S11331406300DCB21B0603D583486B4B984702E04F
S11331508248694B98476300DCB21B0603D580485C
S1133160654B984702E07F48634B98476300DCB2A5
S11331701B0603D57C48604B984702E07B485E4BB6
S11331809847630603D57A485B4B984702E0794831
S1133190594B98472B689C7863B2002B03DA764826
S11331A0554B984702E07548534B98476400E6B284
S11331B0230603D57248504B984702E071484E4BA2
S11331C098477300DCB21B0603D56F484A4B9847F7
S11331D002E06E48484B98476300DCB21B0603D5F7
S11331E06B48454B984702E06A48434B9847630055
S11331F0DCB21B0603D568483F4B984702E067489A
S11332003D4B98476300DCB21B0603D564483A4B38
S1133210984702E06348384B98476300DCB21B06CA
S113322003D56148344B984702E06048324B9847D5
S1133230630603D55E48304B984702E05D482E4B49
S113324098472B68DC7863B2002B03DA5A482A4B80
S1133250984702E05948284B98476400E5B2230692
S113326003D55748244B984702E05648224B9847C9
S11332706B00DCB21B0603D553481F4B984702E092
S113328052481D4B98476300DCB21B0603D55048D7
S1133290194B984702E04F48174B98476300DCB23C
S11332A01B0603D54C48144B984702E04B48124B7D
S11332B098476300DCB21B0603D549480E4B984778
S11332C002E048480C4B98476300DCB21B0603D568
S11332D04548094B984702E04448074B9847630622
S11332E003D54348044B984702E04248024B9847B1
S11332F0002070BD18A900002514000028A90000B2
S113330034A9000044A9000050A9000060A90000ED
S11333106CA900007CA9000088A9000098A90000FD
S1133320A4A90000B4A90000C0A90000D0A900000D
S1133330DCA90000ECA90000F8A9000008AA00001C
S113334014AA000024AA000030AA000040AA000029
S11333504CAA00005CAA000068AA000078AA000039
S113336084AA000094AA0000A0AA0000B0AA000049
S1133370BCAA0000CCAA0000D8AA0000E8AA000059
S1133380F4AA000004AB000010AB000020AB000066
S11333902CAB00003CAB000048AB000058AB000075
S11333A064AB000074AB000080AB000090AB000085
S11333B09CAB0000ACAB0000B8AB0000C8AB000095
S11333C0D4AB0000E4AB0000F0AB000000AC0000A4
S11333D00CAC00001CAC000028AC000038AC0000B1
S11333E044AC000054AC000060AC000070AC0000C1
S11333F07CAC00008CAC000038B5051C03681C785C
S113340063B2002B03DA7848784B984702E0784897
S1133410764B98477F2121407648744CA0477648E4
S1133420A0472B685C78E30703D574486F4B984733
S113343002E073486D4B98476408E30703D571486D
S11334406A4B984702E07048684B9847A30703D536
S11334506E48664B984702E06D48644B98472B686A
S11334609C78E30703D56B48604B984702E06A48B1
S11334705E4B98476408E30703D568485B4B98475D
S113348002E06748594B98476408E30703D5654849
S1133490564B984702E06448544B98476408E30746
S11334A003D56248514B984702E061484F4B984717
S11334B06408E30703D55F484C4B984702E05E4835
S11334C04A4B98476408E30703D55C48474B984741
S11334D002E05B48454B98476408E30703D5594825
S11334E0424B984702E05848404B9847640803D041
S11334F056483E4B984702E055483C4B9847554840
S11335003A4B98472B685C782409E30703D5524863
S1133510364B984702E05148344B98476408E30718
S113352003D54F48314B984702E04E482F4B9847FC
S1133530A30703D54C482D4B984702E04B482B4B2F
S113354098472B68DC78E30703D54948274B98470D
S113355002E04848254B98476408E30703D54648EA
S1133560224B984702E04548204B98476408E307FC
S113357003D543481D4B984702E042481B4B9847EC
S11335806408E30703D54048184B984702E03F48D6
S1133590164B98476408E30703D53D48134B9847F7
S11335A002E03C48114B98476408E30703D53A48C6
S11335B00E4B984702E039480C4B98476408E307E0
S11335C003D53748094B984702E03648074B9847DC
S11335D0640803D03448054B984702E03348034B52
S11335E09847002038BDC04698AC00002514000060
S11335F0C0AC0000ECAC000020AD000038AD000011
S113360060AD000084AD0000B0AD0000D8AD000096
S113361010AE000044AE00006CAE000094AE00009A
S1133620C4AE0000F0AE000020AF000050AF0000B8
S113363084AF0000B8AF0000ECAF000020B0000081
S11336404CB0000078B00000ACB00000E0B0000066
S113365008B1000030B1000044B1000068B10000BE
S113366088B10000ACB10000D0B1000000B200008D
S113367030B2000054B2000078B20000A4B20000DE
S1133680CCB20000F8B2000024B3000054B3000030
S113369084B30000B4B30000E4B300000CB4000031
S11336A034B4000064B4000094B40000B8B4000062
S11336B070B5051C03681C783F48404B9847002CA4
S11336C035D063B2002B02DA3D483C4B9847640086
S11336D0E6B2230602D53B48384B98477300DCB268
S11336E01B0602D53848354B98476300DCB21B06ED
S11336F002D53648314B98476300DCB21B0602D52D
S113370033482E4B98476300DCB21B0602D5314880
S11337102A4B98476300DCB21B0602D52E48274B80
S11337209847630606D52D48244B984702E02C4859
S1133730224B98472B685C782A48204B9847002CEA
S113374035D063B2002B02DA1D481C4B9847640045
S1133750E5B2230602D51B48184B98476B00DCB230
S11337601B0602D51848154B98476300DCB21B06AC
S113377002D51648114B98476300DCB21B0602D5EC
S113378013480E4B98476300DCB21B0602D5114860
S11337900A4B98476300DCB21B0602D50E48074B60
S11337A09847630606D50D48044B984702E00E4837
S11337B0024B9847002070BDDCB4000025140000C3
S11337C01CB5000038B5000054B5000070B5000009
S11337D0E0B500000CB6000064B60000A8B6000016
S11337E0ECB600000CB700004CB7000008B5036845
S11337F01878084B98470849084B98470849094BDB
S11338009847094B9847011C0848094B98470020E2
S113381008BDC046817700000000C842E171000085
S113382000007F43716F0000417700006CB7000017
S11338302514000008B503681978283909B202482C
S1133840024B9847002008BD80B7000025140000F3
S113385010B503681878094B9847094C0949A047E3
S1133860F0218905A0470749074B9847074B98471C
S1133870011C0748074B9847002010BD81770000C2
S1133880E17100000000C842457400004177000067
S1133890A4B700002514000010B503681878094B7C
S11338A09847094C0949A047F0218905A0470749D1
S11338B0074B9847074B9847011C0748074B984705
S11338C0002010BD81770000E17100000000C842B3
S11338D04574000041770000C4B7000025140000BF
S11338E008B5036819780248024B9847002008BDC0
S11338F0E0B7000025140000F8B5066830780C4DD8
S1133900A8470C4C8721C905A047071C7078A84715
S1133910011C381C084B9847FA218905A047074B1E
S11339209847011C0648074B98470020F8BDC0463D
S113393081770000E1710000796C0000417700009C
S11339401CA300002514000008B503681978024878
S1133950024B9847002008BD0CB800002514000055
S113396008B503681878094B9847FC218905084B6A
S113397098478521C905074B9847074B9847011C71
S11339800648074B9847002008BDC04681770000D1
S1133990E171000045740000417700001CB800008C
S11339A02514000008B503681978283909B20248BB
S11339B0024B9847002008BD34B8000025140000CD
S11339C008B503681878084B98470849084B984786
S11339D00849094B9847094B9847011C0848094B6B
S11339E09847002008BDC046817700000000C84207
S11339F0E171000000007F43716F00004177000017
S1133A0054B800002514000038B503681C782E480B
S1133A102E4B984763B2002B03DA2D482B4B984763
S1133A2002E02C48294B98476400E5B2230603D5ED
S1133A302948264B984702E02848244B98476B00B6
S1133A40DCB21B0603D52648204B984702E02548E4
S1133A501E4B98476300DCB21B0603D522481B4B60
S1133A60984702E02148194B98472148174B98473B
S1133A706300DCB21B0603D51E48144B984702E0D2
S1133A801D48124B98476300DCB21B0603D51B4844
S1133A900E4B984702E01A480C4B98476300DCB27F
S1133AA01B0603D51748094B984702E01648074BF5
S1133AB09847630603D51548044B984702E0144819
S1133AC0024B9847002038BD70B800002514000050
S1133AD0E0A90000F0A90000C4A90000D4A90000D6
S1133AE0A8A90000B8A900008CA900009CA90000A6
S1133AF088B8000070A9000080A9000054A9000043
S1133B0064A9000038A9000048A900001CA900000D
S1133B102CA90000F8B506683078124DA847124C5D
S1133B201249A047071C7078A8471149A047F02103
S1133B308905A047061C381C0E490F4B98470F4DAA
S1133B40A847FA239B0043431C1C301C08490C4B18
S1133B509847A847021C0B48211C0B4B9847002090
S1133B60F8BDC04681770000E171000000002041EB
S1133B700000C8420000FA44716F00004177000061
S1133B804574000090B800002514000070B5051CB1
S1133B9003681C7863B2002B03DAAC48AC4B98473B
S1133BA002E0AC48AA4B98476400E6B2230603D56A
S1133BB0A948A74B984702E0A848A54B984773002B
S1133BC0DCB21B0603D5A648A14B984702E0A548E2
S1133BD09F4B98476300DCB21B0603D5A2489C4B5D
S1133BE0984702E0A1489A4B98476300DCB21B0651
S1133BF003D59F48964B984702E09E48944B9847BC
S1133C006300DCB21B0603D59B48914B984702E046
S1133C109A488F4B98476300DCB21B0603D598483B
S1133C208B4B984702E09748894B9847630603D526
S1133C309548874B984702E09448854B98472B68F2
S1133C405C7863B2002B03DA9148814B984702E019
S1133C5090487F4B98476400E6B2230603D58E480C
S1133C607B4B984702E08D48794B98477300DCB250
S1133C701B0603D58A48764B984702E08948744B63
S1133C8098476300DCB21B0603D58748704B9847FE
S1133C9002E086486E4B98476300DCB21B0603D5EE
S1133CA083486B4B984702E08248694B984763000E
S1133CB0DCB21B0603D58048654B984702E07F4879
S1133CC0634B98476300DCB21B0603D57C48604B0A
S1133CD0984702E07B485E4B9847630603D57A48D1
S1133CE05B4B984702E07948594B98472B689C787E
S1133CF063B2002B03DA7648554B984702E07548C7
S1133D00534B98476400E6B2230603D57248504BE0
S1133D10984702E071484E4B98477300DCB21B068B
S1133D2003D56F484A4B984702E06E48484B984782
S1133D306300DCB21B0603D56B48454B984702E091
S1133D406A48434B98476300DCB21B0603D56848B6
S1133D503F4B984702E067483D4B98476300DCB20D
S1133D601B0603D564483A4B984702E06348384B36
S1133D7098476300DCB21B0603D56148344B98476F
S1133D8002E06048324B9847630603D55E48304BE7
S1133D90984702E05D482E4B98472B68DC7863B265
S1133DA0002B03DA5A482A4B984702E05948284B1B
S1133DB098476400E5B2230603D55748244B984737
S1133DC002E05648224B98476B00DCB21B0603D531
S1133DD053481F4B984702E052481D4B98476300D5
S1133DE0DCB21B0603D55048194B984702E04F48F4
S1133DF0174B98476300DCB21B0603D54C48144BA1
S1133E00984702E04B48124B98476300DCB21B060C
S1133E1003D549480E4B984702E048480C4B984755
S1133E206300DCB21B0603D54548094B984702E002
S1133E304448074B9847630603D54348044B9847C7
S1133E4002E04248024B9847002070BDD0B8000001
S1133E5025140000E0B80000ECB80000FCB8000035
S1133E6008B9000018B9000024B9000034B90000F2
S1133E7040B9000050B900005CB900006CB9000002
S1133E8078B9000088B9000094B90000A4B9000012
S1133E90B0B90000C0B90000CCB90000DCB9000022
S1133EA0E8B90000F8B9000004BA000014BA000030
S1133EB020BA000030BA00003CBA00004CBA00003E
S1133EC058BA000068BA000074BA000084BA00004E
S1133ED090BA0000A0BA0000ACBA0000BCBA00005E
S1133EE0C8BA0000D8BA0000E4BA0000F4BA00006E
S1133EF000BB000010BB00001CBB00002CBB00007A
S1133F0038BB000048BB000054BB000064BB000089
S1133F1070BB000080BB00008CBB00009CBB000099
S1133F20A8BB0000B8BB0000C4BB0000D4BB0000A9
S1133F30E0BB0000F0BB0000FCBB00000CBC0000B8
S1133F4018BC000028BC000034BC000044BC0000C5
S1133F5008B50368197809025B78C91889B2024860
S1133F60024B9847002008BD50BC000025140000F7
S1133F70F0B54F464646C0B483B005682878194C5E
S1133F80A047194B98468721C9059847061C6878AD
S1133F90A047011C154B9946301C9847061CA8786D
S1133FA0A0478621C905124B98470190301C002177
S1133FB0C047104FB847FA26B6004643E878A047F2
S1133FC0EE218905C047011C0198C847B847021C67
S1133FD00948311C094B9847002003B00CBC90469B
S1133FE09946F0BD81770000E1710000796C000012
S1133FF0457400004177000074BC000025140000E3
S113400008B5002904D10068444B9847002084E097
S1134010012904D14068424B984700207DE00329E0
S113402004D1C0683F4B9847002076E0042904D1AE
S113403000693D4B984700206FE0052904D1406991
S11340403A4B9847002068E0062904D18069384B30
S11340509847002061E0072904D1C069354B98478F
S113406000205AE00B2904D1C06A334B9847002042
S113407053E00C2904D1006B304B984700204CE0EE
S11340800D2904D1406B2E4B9847002045E00E29A2
S113409004D1806B2B4B984700203EE00F2904D1BC
S11340A0C06B294B9847002037E0112904D1406C9C
S11340B0264B9847002030E0132904D1C06C244BD0
S11340C09847002029E0152904D1406D214B9847D9
S11340D0002022E01C2904D11F48204B98470020CF
S11340E01BE0202905D18023C0581D4B9847002090
S11340F013E0212905D18423C0581A4B9847002086
S11341000BE0342905D1D023C058174B9847002021
S113411003E01648114B9847FF2008BD35300000D6
S1134120F9330000B1360000ED37000035380000E7
S11341305138000099380000E1380000F9380000D7
S11341404939000061390000A5390000C139000077
S1134150093A0000153B0000B8B80000251400001F
S11341608D3B0000513F0000713F0000BCBC0000CB
S1134170F0B55F4656464D464446F0B491B0051C32
S11341800C1C161C2960081CB94B9847226805238F
S1134190D20700D563E122681733920700D55EE1A8
S11341A0B4490A6A871C1B3BBB4013430B620FA92B
S11341B02D27F35D0B701430C3B20293181CAE4B61
S11341C098470298AD4B9847F05D0021AC4B984757
S11341D0F37A6B712423F35CAB712523F35CEB71ED
S11341E0F37E2B72337F6B722B689A46181CA04B9C
S11341F09847143000220E2306A98C4663441A8083
S1134200338A99468023DB01994519D004D8802349
S11342109B0199450AD003E1C023DB0199450AD0EB
S113422080231B02994500D1FFE0F9E01023984652
S11342300F3B0793FDE008239846073B0793F8E0FC
S113424033689B46F368029373690393337E049344
S11342502623F35C059372680692002A15D0802306
S11342605B059A4236D12723F35C002B36D1336A9F
S11342709846C0B2834B9847011C40460E2206ABB9
S11342809C466244804B984725E0082398460023C7
S113429007932723F35C002B0BD043460093306A2B
S11342A0B16A0E2206AB9C466244079B774FB8471F
S11342B011E0336A1F1CC0B2724B9847011C43467D
S11342C00093381C0E2206AB9C466244079B6F4F3A
S11342D0B84700E00020031E00D0C0E0737E002B2E
S11342E002D0B37E524693732A68069FD369002B8B
S11342F0FCD10E3306AA944663441B88524693812C
S1134300029B5A461343039A13433B434A461343BF
S1134310049A12021343059A57071F432723F35C99
S1134320002B01D104331F43337F5902727E930261
S11343300B43727F120213432422B25C52041343D0
S11343402522B25C12041343F17A19433389FF2BFB
S113435004D0802252041743194305E0F37E002B56
S113436002D08023DB041F432C23F35C002B03D1F6
S1134370474B9B789B0701D580231F432A68D36949
S1134380002BFCD1534659602A68D369002BFCD119
S113439053461F600EAB80221A7000225A70DA70E6
S11343A09A70336B0A93736B0B93B36B0C93F36B2D
S11343B002930D9300270EAEF9B2BB000AAA9858D7
S11343C0002802D1201C334B9847431C05D0307081
S11343D0000CC0B2311C304B98470137042FEBD18D
S11343E00023EB602B616B61AB61EB612B62AB6211
S11343F06B620022EB85AB853033EA540133EA5417
S11344000133EA540133EA542868194B9847041CD1
S11344102249234B9847A400224BE55000231EE079
S1134420102398460023079303E0032398460023B0
S1134430079333689B46F368029373690393337E4F
S113444004932623F35C059372680692002A00D134
S11344501FE780235B059A4200D104E73EE7181C5E
S113446011B03CBC90469946A246AB46F0BDC0464E
S11344708D0F0000000400406D520000E151000067
S1134480B90D000089520000C90B0000F10B0000B7
S113449000200041050E000065530000C90F000014
S11344A0954C0000DC05002010B50368C4791C227B
S11344B0002C0DD0C08D80B2173A002808D1DA69DB
S11344C0002AFCD1198502211A7E0A42FCD000225E
S11344D0101C10BD10B5046882791C23002A33D047
S11344E0828D92B2173B002A2ED1227E52072BD501
S11344F0E369002BFCD1638BDBB29A0621D09A07C7
S113450003D50223638318331EE05A0703D504231B
S113451063831A3318E0DA0703D501236383123364
S113452012E0DA0605D5628B10231343638342231A
S11345300AE09B0605D5628B202313436383412342
S113454002E0238D0B800023181C10BDF0B58BB046
S113455001600C681C23A40700D5E2E00C68173B3B
S1134560E40700D5DDE0161C0C1C051C081C6E4B72
S113457098476E490A6A871C0123BB4013430B62A8
S113458009A92427F35D0B701430C3B20193181CDE
S1134590674B98470198674B9847F05D0021664B3D
S11345A098473378012B03D122680B3313432360DC
S11345B03378002B00D0AEE0226808331343236025
S11345C0A9E004C38B42FCD10023EB62AB6200245C
S11345D0AB862B863633EC540133EC540133EC5464
S11345E0353B6B722C7128684F4B9847071C534915
S11345F0534B9847BF00534BFD502F6804AB8022A8
S11346001A705C707F3A9A70DC703378002B02D198
S1134610002204AB9A70B36A0593F36A0693336B72
S11346200793736B08930024E1B2A30005AA98587A
S1134630002802D1381C444B9847431C06D002ABD7
S11346401872000CC0B204A9404B98470134042CE2
S1134650EAD133786B71337CAB71B37CEB71337D0E
S11346602B72002202ABDA803378012B13D1286835
S11346702D4B98471430C0B2354B9847011CB06994
S113468002AB9A1D334B98471723002849D102AB3C
S113469006331B783B733378002B0FD1B069B38B8F
S11346A0796AF27F1204B47F22430A437A62202299
S11346B0B25C002A04D040210B4301E00023002017
S11346C0B26871680A43F1680A430243317C0B43C0
S11346D0717C002903D120498978890701D580217B
S11346E00A43B17C002902D0802189020B43F17C6A
S11346F0002902D0802189000B43317D002902D09A
S1134700802189010B4339680A433A607A6813436C
S11347107B60002305E02B1C0C33291C283100226C
S11347204FE7181C0BB0F0BD8D0F000000040040D3
S11347306D520000E1510000B90D0000954A0000DF
S1134740954C0000DC050020050E000065530000B8
S113475089520000C90B000000200041F0B5574603
S11347604E464546E0B4071C8C463821405CC0B236
S1134770052877D01720002A74D0F979053000294C
S113478070D07979002905D13968087E800701D570
S113479002200876002004253549894602218846EE
S11347A00139DB05DB0D9A467C79012C56D13E6834
S11347B0347E0C42FCD0347E0C4214D05346B36297
S11347C04CE01E7E2E4202D1013C002CF9D13C6803
S11347D0267E43461E4203D002232376042041E072
S11347E0247E2C4232D03E68347E2C42FCD0347E6F
S11347F02C4214D0738B00242B4204D0738B0434CA
S11348001C4374831E24BB79012B03D1B66AF605BD
S1134810F60D01E0B66AF6B2002C03D000E01024D5
S1134820201C1FE0441CA4B263461E54BB79012B18
S113483005D1023080B2360A63461E5500E0201CC2
S1134840013A92B2002AAFD100200BE0122009E015
S11348503B681C7E2C42BAD14C46B2E77C79002CD2
S1134860F6D0C0E71CBC90469946A246F0BDC046AF
S113487010270000F0B55F4656464D464446F0B456
S113488083B0041C3823C05CC0B2052800D1F4E016
S11348901720002A00D1F0E06379002B05D12368AA
S11348A0187E800701D50220187693460020012344
S11348B00425AC4693E06579002D17D127683D7E29
S11348C01D4206D1704D3E7E1E4202D1013D002D97
S11348D0F9D12668357E02273D4203D00223337680
S11348E00420CAE0357E1D4200D1BDE02668357E35
S11348F01D42FCD0451CAFB20D5CA946A579012D23
S113490005D048466D46A880AD88381C05E00230C5
S113491080B2CF5D3F024D463D43377E1F4202D0F9
S1134920ED05ED0DB562551EADB2E679002E59D0F8
S11349306579002D39D1554D8A46002A20D0266844
S1134940377E1F421CD0471CB9B288465146095CC9
S11349500191A179012903D069468F88404607E077
S1134960023080B241465746795C0902019F0F43E9
S1134970317E194202D0FF05FF0DB762013A92B2AF
S11349802668377E61460F4202D1013D002DD4D105
S11349905146357E02273D4203D00223337604205C
S11349A06BE0357E6646354260D02668357E6746C4
S11349B03D42FBD0357E3D420DD0758B3D4204D047
S11349C0758B04273D43ADB27583A579012D01D1C3
S11349D0B56A00E0B56A5D46013DADB2AB46013A49
S11349E092B200E02A1C2A4DAA4200D063E75A463C
S11349F06379012B06D1216802220B7E1342FCD07D
S1134A0000203AE0002B33D1E3790020002B34D08E
S1134A10002A1FD131E0027E0A4202D1013B002B61
S1134A20F9D123681A7E0A4224D01A7E0A420CD095
S1134A305A8B0A4203D05A8B324392B25A83A279D8
S1134A40012A01D19B6A00E09B6A013FBFB2002F9B
S1134A5004D111E004210C4D04265F462068037E36
S1134A600B42DED12B1CD6E7122006E0122004E014
S1134A70002002E0122000E0002003B03CBC90467D
S1134A809946A246AB46F0BD10270000112700004E
S1134A90FFFF0000F8B580007B4BC458266836231E
S1134AA0E35C3722A75C1F40337EB57D1D40EB07D6
S1134AB043D56379012B16D1637A002B0FD1734B45
S1134AC01B88B362638E013B9BB26386638E9BB289
S1134AD0002B01D1013333756379012B03D1637A40
S1134AE0002B05D129E0002B27D1637A002B24D099
S1134AF02068E16A0B78DAB24B1CE362A379012BDC
S1134B0001D093B204E04B781B0213430231E162FB
S1134B10DB05DB0D8362A38E013B9BB2A386A38ED0
S1134B209BB2002B09D101333375637A012B04D175
S1134B30E379002B01D10233B3756B0761D5738B15
S1134B405B0714D5637A012B0BD01E223823E25461
S1134B50353B6372023333753B0702D5201CA369CE
S1134B609847B36A728B04231343738349E0637ACF
S1134B70012B16D123689B6A638E013B9BB263862B
S1134B80638E9BB2002B3CD1043333750022343343
S1134B90E254353B6372FB0733D5201CE368984726
S1134BA02FE023689B6ADB05DB0DDAB2A16A0A7089
S1134BB0A26A511CA162A179012904D11B0A537074
S1134BC0A36A0133A362238E013B9BB22386238E07
S1134BD09BB2002B15D100223833E254343B337599
S1134BE0637A022B05D17B070BD5201C6369984798
S1134BF007E0637A002B04D1BB0702D5201C23698C
S1134C009847AB0728D56379002B10D10733337548
S1134C10053B3376013363720023A386238638333E
S1134C200022E254FB0602D5201CE369984763790D
S1134C30012B11D1637A012B1BD1E379002B18D1FD
S1134C40023333750133637200223533E254FB07B8
S1134C5002D5201CE36898472B070AD56379002BFB
S1134C6007D1083333753376BB0602D5201C236A7B
S1134C709847ED0907D08023337533767B0602D538
S1134C80636A201C9847F8BDDC050020DA05002083
S1134C907047C046F0B50A4B1B78002B0CD1094F66
S1134CA0094E0A4D0024DE515A1914600433182B9E
S1134CB0F9D10122024B1A708000024BC150F0BDA1
S1134CC05301002054010020914C0000DC05002019
S1134CD010B582B0041C684605490622054B984766
S1134CE0201C054B98476B46185602B010BDC046B1
S1134CF0D0BC0000299A00008D0F000008B5024BBB
S1134D001B680020984708BD5401002008B5024BD9
S1134D105B680120984708BD5401002008B5024B88
S1134D209B680220984708BD5401002008B5024B37
S1134D30DB680320984708BD5401002008B5024BE6
S1134D401B690420984708BD5401002008B5024B94
S1134D505B690520984708BD540100200C4B1B6873
S1134D60002B10D1EFF31083002B09D172B6BFF3DF
S1134D705F8F0022074B1A700132074B1A7002E052
S1134D800022054B1A70024A1368013313607047FE
S1134D906C010020C400002070010020084B1A6838
S1134DA0013A1A601B68002B09D1064B1B78002BB3
S1134DB005D00122044B1A70BFF35F8F62B67047AF
S1134DC06C01002070010020C4000020F0B583B005
S1134DD001AC012565700027A77025703E20211CB9
S1134DE0064EB0478022D205054B9A612770657044
S1134DF00F20211CB04703B0F0BDC046054E000093
S1134E008044004100B583B001AB80221A700A7857
S1134E105A704A789A708A78DA70191C014B98474C
S1134E2003B000BD6553000008B5082803D880000E
S1134E301B4B1B589F46002031E01A4B18692EE08B
S1134E40194B186A8005800F184BC340181C26E0C4
S1134E50144B586923E0134B1B68022018401ED0E2
S1134E6011491022CB681A42FCD00E4B1B685B0719
S1134E7014D500200E4B98470A4B9B681B041B0C4F
S1134E8058430CE05023084AD35C00205B0706D546
S1134E90044BD86803E08020000200E0054808BD08
S1134EA0D8BC0000740100200008004000127A0001
S1134EB089520000006CDC0270B50C4C236A017846
S1134EC0857842780120024092014026B34313437F
S1134ED0021C2A40D2017F308343134303220A4039
S1134EE0120203490B401343236270BD00080040C3
S1134EF0FFFCFFFF082803D88000254B1B589F4662
S1134F00172044E0234A116A02230B431362002052
S1134F103DE0204A916902230B439361002036E06F
S1134F201C4A118A02230B43138200202FE0194AE2
S1134F30918A02230B439382002028E016490B68D0
S1134F40022213430B60134B9A84191C0E32CB6854
S1134F501A42FCD0104A91680E4BD96252689A6288
S1134F6000229A84191C1032CB681A42FCD00A4BD6
S1134F701B689BB2074A9384002008E00549442239
S1134F80885C022303438B54002000E00020704718
S1134F90FCBC0000000800407401002030B585B05E
S1134FA0C222D2001A4B9A601A4A53681E218B43BC
S1134FB0536001236A4613700024174DE0B269461A
S1134FC0A8470134252CF9D103A8002444700125F5
S1134FD085700470114B98470620114B9847114B6C
S1134FE09847114B1C725C729C72DC7201956B4683
S1134FF05C7006236A46137014725472002069466A
S11350000A4B984700200A4B984705B030BDC0466C
S113501000080040004000416D520000B94E0000FD
S1135020F54E0000355000000004004059500000C7
S113503011510000064A916908230B439361012230
S1135040044B1A70191C0B781342FCD17047C046EC
S113505000040040000C004070B5061C041C0D78D0
S11350602D0205434B78002B02D08023DB021D4325
S11350704B7A002B02D080231B031D434868012870
S113508018D9431E184210D1022806D9022300223F
S113509001325B009842FBD800E000221202324346
S11350A0141C80235B031D4304E004023443802367
S11350B09B021D430B7A002B02D080239B031D43CC
S11350C00F4A53785BB2002BFBDB0E4B98470E4B19
S11350D01E700B4A53785BB2002BFBDB084B9C60C1
S11350E01A1C53785BB2002BFBDB054A5168802302
S11350F05B020B401D435560044B984770BDC0468E
S1135100000C00405D4D0000080C00409D4D000067
S113511010B5041C0B4A53785BB2002BFBDB0A4B23
S113512098470A4B1C70074A53785BB2002BFBDB91
S1135130044A5368802149020B435360044B984747
S113514010BDC046000C00405D4D0000040C004042
S11351509D4D000070B5041C1A4A53785BB2002BB5
S1135160FBDB194B9847194B1C70164A53785BB2FA
S1135170002BFBDB134E7068C004C00E144B984721
S1135180051C124B1C707668F602F60F114B1C704E
S11351900C4A53785BB2002BFBDB0A4B9C68240A55
S11351A0A4B20D4B9847002E07D1012C07D9281C17
S11351B0211C0A4B9847051C01E00134E540281CDA
S11351C070BDC046000C00405D4D0000040C004062
S11351D0294E0000080C00409D4D00008D67000022
S11351E010B5041C064B9847064B1C70064A5188A0
S11351F08023DB010B435380044B984710BDC0460A
S11352005D4D0000020C0040000C00409D4D00006C
S113521010B5041C0F4B98470F4B1C700F4B5A884A
S11352201205100F59880E4A0A405A8059880D4AAF
S11352300A405A80191C8022D2014B881342FCD1A7
S1135240064902024888064B034013434B80064B31
S1135250984710BD5D4D0000020C0040000C00405A
S1135260FFF0FFFFFFBFFFFF9D4D000010B50C785E
S113527024020443024B9847A4B2024B5C8010BD45
S113528011520000000C004010B5041C064B984756
S1135290064B1C70064B5C882405240F054B98476D
S11352A0201C054B984710BD5D4D0000020C0040CA
S11352B0000C00409D4D00005551000030B5D378DE
S11352C0002B1ED11478802C04D0240680235B028A
S11352D01C4300E0002453780225AB430AD19378A1
S11352E0002B03D180239B021C4302E0C023DB027A
S11352F01C4341605378013B012B12D8184B1C40CE
S11353000FE041600B041B0CA024E40523438362DB
S11353100B0CD024240623438362D378002B18D0AB
S11353201CE00B041B0CA025ED052B4323438362D7
S11353300B0CD0252D062B4323438362D378002BFB
S11353400CD1630305D59378012B01D1816100E071
S113535041615378013B012B00D8816030BDC046C8
S1135360FFFFFBFF08B5031C0A1CC109002000292C
S113537004D15809C00105498C4660441F210B40E3
S11353801E399940024B984708BDC046004400416D
S1135390BD5200007047C04608B5054B9847054B01
S11353A09847054B9847054B9847054B984708BDC8
S11353B09D4F0000CD4D0000955300009553000013
S11353C095530000FEE7C04670B52E4B2E4A9A4214
S11353D003D02E4B2B4A9A4204D32D4B2D4A9A428A
S11353E010D31EE02C4A294B03339B1A9B0801332C
S11353F09B000022234824498C58845004329A424A
S1135400FAD1EAE7254A224B03339B1A9B0801335E
S11354109B0000221F4800211418216004329A4284
S1135420FAD11F4AFF211F4B8B439360FD39902310
S11354305B001D4AD1501D48C3780324A3430222B4
S11354401343C370C3780C26B34308210B43C370C2
S1135450174B987B3025A843051C202028439873BC
S1135460987BB04301439973997BA1430A439A7390
S1135470104A516880230B4353600F4B98470F4BDE
S11354809847FEE70000002068BF00002C010020C0
S1135490F80500202C010020040000203001002029
S11354A000ED00E0000000000070004100500041E9
S11354B00048004100400041DD9900008D180000C3
S11354C0031C064A1268002A02D10549034A1160E6
S11354D0024A1068C31813607047C0468C0100204C
S11354E0F8250020F0B546465746C0B48FB01F1CBF
S11354F002900391161C00F0A3F9041C0D1CC84B68
S11355000094019598461B785BB2013305D0301C9A
S1135510391C00F0DFFF002806D1009801990FB074
S11355200CBC90469A46F0BD0298039900F0D2FF55
S11355308246002831D1301C391C0022002301F09E
S1135540B7FA0028E9D001230493B64B04AD6B608D
S1135550534600222B62029B039CAB60EC60B24B6F
S11355602E616F61AA61EB6143461B785BB25A1CE2
S11355700ED0022B0CD0281C00F0DAFF002800D13A
S113558080E02B6A002B03D004F022FA2B6A03601C
S1135590AB69EC6900930194BFE702980399002278
S11355A0002301F085FA002822D0301C391C002287
S11355B0002301F07DFA041E2CD001230493994B9F
S11355C004AD6B6000232B62029B039CAB60EC6018
S11355D000230024AB61EC6143461B782E616F61AC
S11355E05BB2002BC7D000228F4BAA61EB61CFE7DF
S11355F0201C291C00F064FF8246002847D0201C90
S1135600291C0022002301F053FA002866D10094DB
S1135610019582E7301C391C00F052FF002800D1AC
S11356207BE7301C391C0022002301F047FA0028D4
S113563000D172E7012304937A4B04AD6B602C62B2
S1135640029B039CAB60EC6043461B782E616F6148
S1135650002B75D100230024AB61EC61281C00F001
S113566067FF002872D02B6A002B91D08CE70020B2
S11356700021021C0B1C02F0F3FBA861E961022C5F
S113568000D078E704F0A4F92123036079E70298B5
S1135690039900F015FF0028B1D0301C391C00F02C
S11356A00FFF0028ABD0291C201C00F013FF04AD11
S11356B0002850D1012304935A4B28626B60029B4B
S11356C0039CAB60EC6043461C782E616F61002C38
S11356D0CDD100230024AB61EC614CE7029803991F
S11356E000F0EEFE00940195002800D115E7301C6F
S11356F0391C00F0E5FE00940195002800D10CE768
S113570004230493474B04AD6B6000232B62029B7C
S1135710039CAB60EC6000230024AB61EC61434666
S11357201B782E616F615BB2022B04D0281C00F041
S1135730FFFE002897D104F04BF92223036092E77F
S113574000203A49A861E961022B87D104F040F9AD
S11357502123036087E703230493324B2E616F6197
S11357606B6053462B62029B039CAB60EC60434628
S11357701B785BB2002B1CD102980399E0222C4BBE
S11357801206AA61EB610022002301F097F90028B8
S113579030D143461B785BB2022B05D0281C00F0A5
S11357A0C7FE002800D0ECE604F012F922230360BF
S11357B0E7E60022029803991E4BAA61EB610022DE
S11357C0002301F07BF90028E3D000221A4B301C9F
S11357D0391C02F083FF061C0F1C00F0B1FE321CC2
S11357E03B1C01F065F90028D3D100220F4BAA61BC
S11357F0EB61CEE70022104B301C391C02F06EFF27
S1135800061C0F1C00F09CFE321C3B1C01F050F9DE
S11358100028BED1E022094B1206AA61EB61B8E769
S1135820C500002020BD00000000F03F0000F0FF94
S1135830FFFFEF470000F07F0000E03FFFFFEFC7EE
S1135840F0B556464D4644465F46F0B41C1C131C46
S113585067008DB07F0800930194061C0D1C8046E0
S11358608946A2463B4331D0614B6C0064089C429C
S113587028DC25D09F4225DC5D4B9F4200D176E099
S113588000239B464B46002B00DA74E0002A2CD1FF
S1135890574B9F4200D18AE0564B9F425FD08023F2
S11358A0DB059A4501D100F0D1FB534B9A451CD13D
S11358B04B46002B19DB301C291C00F007FD07E0C8
S11358C000280CD04D4BE01830430AD10020494940
S11358D00DB03CBC90469946A246AB46F0BDA742EB
S11358E0CADD474800F026FEF2E7301C291C00F010
S11358F0E3FD0B1C4146021C00291ED0E90F0139AF
S1135900884659464046014366D03E498F4200DCF2
S113591088E03D498F4201DC00F0E0FB3B4B9C42B8
S113592000DC82E35346002B00DC82E3384839492B
S1135930021C0B1C02F0D2FECAE7002C04D02D4836
S1135940A90089088142D9D15146002900DABBE374
S11359504946002900DA6FE3101C191CB8E75346C6
S1135960002B01DA00F020FC301C291CB0E7002ACF
S113597000D185E7A6E7284B9F422ADC234B9F42B0
S113598000DC83E725493815884201DC00F027FC58
S1135990234B00991B1AD940081C9840904200D010
S11359A074E70123194001335B1A9B466EE7134BDE
S11359B0E018064300D189E7144B9C4200DC75E3F0
S11359C05346002B00DA34E3009B019C181C211C75
S11359D07EE702239B4659E7301C291C321C2B1CF2
S11359E003F016F9021C0B1C02F03AFA70E7C046E9
S11359F00000F07F0000F03F0000E03F000010C016
S1135A008CA800000000E0410000F043FFFFEF3FDE
S1135A109C7500883CE4377EFFFF3F43130400007D
S1135A2033040000E94900208C4209DC101C191CD5
S1135A300022E74B02F052FE021C35200C1C4042AF
S1135A40E44D2115AC4661448A462403E24DE34902
S1135A50240B824425438C4200DC3CE3E0498C4225
S1135A6001DC00F021FC01218C46DE49E2448C4635
S1135A70002400216544CB009946161C2F1CDA4BE8
S1135A80301C4B441A685B68291C069607970892D9
S1135A90099303F0BDF8089A099B061C0F1C06988D
S1135AA0079901F0B5FE021C0B1C0020CA4902F044
S1135AB0D7F9021C0B1C301C391C0A920B9302F000
S1135AC00DFE0A1C011C131C049105920022029273
S1135AD0039380236D109B051D43802300201B032B
S1135AE0EB1819190D1C041C02980399221C2B1C79
S1135AF002F0F4FD021C0B1C301C391C03F088F866
S1135B00089A099B061C0F1C201C291C03F080F812
S1135B10021C0B1C0698079903F07AF8021C0B1C54
S1135B200298039902F0DAFD021C0B1C301C391C8C
S1135B3003F06EF80A9A0B9B02F0D0FD049A059BC1
S1135B4006900791101C191C02F0C8FD041C0D1CC2
S1135B50221C2B1C02F0C2FDA44A061C0F1C201C94
S1135B60291CA34B02F0BAFDA24AA34B01F050FE3C
S1135B70221C2B1C02F0B2FDA04AA14B01F048FEEE
S1135B80221C2B1C02F0AAFD9E4A9F4B01F040FEF2
S1135B90221C2B1C02F0A2FD9C4A9D4B01F038FEF6
S1135BA0221C2B1C02F09AFD9A4A9B4B01F030FEFA
S1135BB0021C0B1C301C391C02F090FD049A059B3E
S1135BC0041C0D1C0298039901F022FE069A079BFF
S1135BD002F084FD221C2B1C01F01AFE029B039C84
S1135BE0061C0F1C1A1C181C211C231C02F076FD19
S1135BF00A1C011C894B08910992111C002201F016
S1135C0007FE321C3B1C01F003FE00240D1C02980D
S1135C100399221C2B1C02F061FD221C2B1C0290F8
S1135C2003910698079902F059FD00220690079106
S1135C307A4B201C291C02F0EBFF089A099B02F006
S1135C40E7FF021C0B1C301C391C02F0E1FF049A14
S1135C50059B02F043FD021C0B1C0698079901F0FA
S1135C60D7FD061C0F1C02980399321C3B1C01F043
S1135C70CFFD0024E022201C1206694B0D1C02F00B
S1135C802DFD684A06900791674B201C291C02F0E1
S1135C9025FD029A039B04900591201C291C02F007
S1135CA0B7FF021C0B1C301C391C02F0B1FF5F4A09
S1135CB05B4B02F013FD021C0B1C0498059901F0C8
S1135CC0A7FD5B4B4B441A685B6801F0A1FD061C01
S1135CD050460F1C03F04CFB041C0D1C069807993E
S1135CE0544B4B441A685B6804920593321C3B1C6A
